{
  "contractName": "Storage",
  "abi": [
    {
      "constant": true,
      "inputs": [
        {
          "internalType": "uint256",
          "name": "number",
          "type": "uint256"
        }
      ],
      "name": "factorial",
      "outputs": [
        {
          "internalType": "uint256",
          "name": "",
          "type": "uint256"
        }
      ],
      "payable": false,
      "stateMutability": "view",
      "type": "function"
    },
    {
      "constant": false,
      "inputs": [
        {
          "internalType": "uint256",
          "name": "num",
          "type": "uint256"
        }
      ],
      "name": "store",
      "outputs": [
        {
          "internalType": "uint256",
          "name": "",
          "type": "uint256"
        }
      ],
      "payable": false,
      "stateMutability": "nonpayable",
      "type": "function"
    },
    {
      "constant": true,
      "inputs": [],
      "name": "retrieve",
      "outputs": [
        {
          "internalType": "uint256",
          "name": "",
          "type": "uint256"
        }
      ],
      "payable": false,
      "stateMutability": "view",
      "type": "function"
    }
  ],
  "bytecode": "0x608060405234801561001057600080fd5b5061016f806100206000396000f3fe608060405234801561001057600080fd5b50600436106100415760003560e01c80632e64cec1146100465780636057361d1461006457806383714834146100a6575b600080fd5b61004e6100e8565b6040518082815260200191505060405180910390f35b6100906004803603602081101561007a57600080fd5b81019080803590602001909291905050506100fa565b6040518082815260200191505060405180910390f35b6100d2600480360360208110156100bc57600080fd5b8101908080359060200190929190505050610110565b6040518082815260200191505060405180910390f35b60006100f5600054610110565b905090565b6000816000819055506003600054019050919050565b600060018214156101245760019050610135565b61013060018303610110565b820290505b91905056fea265627a7a72315820092eeed5c9b4de57fdbcbda1b6ca047580f4b10ae02a4356556cfdb9105b075364736f6c63430005100032",
  "source": "// SPDX-License-Identifier: GPL-3.0\n\n/**\n * @title Storage\n * @dev Store & retrieve value in a variable\n */\ncontract Storage {\n    uint256 insideNumber;\n\n    function factorial(uint256 number) public view returns (uint256){\n        if (number == 1) {\n            return 1;\n        } else {\n            return number * factorial(number -1);\n        }\n    }\n\n    /**\n     * @dev Store value in variable\n     * @param num value to store\n     */\n    function store(uint256 num) public returns (uint256) {\n        insideNumber = num;\n        return insideNumber + 3;\n    }\n\n    /**\n     * @dev Return value \n     * @return value of 'number'\n     */\n    function retrieve() public view returns (uint256){\n        return factorial(insideNumber);\n    }\n}",
  "sourcePath": "/Users/marcofuentes/Documents/UVG/9no/Blockchain/MetaCoin/contracts/1_Storage.sol",
  "compiler": {
    "name": "solc",
    "version": "0.5.16+commit.9c3226ce.Emscripten.clang"
  },
  "schemaVersion": "3.4.7",
  "updatedAt": "2022-05-04T00:24:12.754Z",
  "networkType": "ethereum",
  "devdoc": {
    "details": "Store & retrieve value in a variable",
    "methods": {
      "retrieve()": {
        "details": "Return value ",
        "return": "value of 'number'"
      },
      "store(uint256)": {
        "details": "Store value in variable",
        "params": {
          "num": "value to store"
        }
      }
    },
    "title": "Storage"
  },
  "userdoc": {
    "methods": {}
  }
}