{
  "contractName": "UXLAB",
  "abi": [
    {
      "constant": false,
      "inputs": [
        {
          "internalType": "address",
          "name": "pc",
          "type": "address"
        }
      ],
      "name": "reservePC",
      "outputs": [
        {
          "internalType": "bool",
          "name": "",
          "type": "bool"
        }
      ],
      "payable": false,
      "stateMutability": "nonpayable",
      "type": "function"
    },
    {
      "constant": false,
      "inputs": [
        {
          "internalType": "uint256",
          "name": "pcIndex",
          "type": "uint256"
        }
      ],
      "name": "releasePC",
      "outputs": [
        {
          "internalType": "bool",
          "name": "",
          "type": "bool"
        }
      ],
      "payable": false,
      "stateMutability": "nonpayable",
      "type": "function"
    },
    {
      "constant": true,
      "inputs": [],
      "name": "getPCs",
      "outputs": [
        {
          "internalType": "address[10]",
          "name": "",
          "type": "address[10]"
        }
      ],
      "payable": false,
      "stateMutability": "view",
      "type": "function"
    }
  ],
  "bytecode": "0x6080604052604051806101400160405280600073ffffffffffffffffffffffffffffffffffffffff1673ffffffffffffffffffffffffffffffffffffffff168152602001600073ffffffffffffffffffffffffffffffffffffffff1673ffffffffffffffffffffffffffffffffffffffff168152602001600073ffffffffffffffffffffffffffffffffffffffff1673ffffffffffffffffffffffffffffffffffffffff168152602001600073ffffffffffffffffffffffffffffffffffffffff1673ffffffffffffffffffffffffffffffffffffffff168152602001600073ffffffffffffffffffffffffffffffffffffffff1673ffffffffffffffffffffffffffffffffffffffff168152602001600073ffffffffffffffffffffffffffffffffffffffff1673ffffffffffffffffffffffffffffffffffffffff168152602001600073ffffffffffffffffffffffffffffffffffffffff1673ffffffffffffffffffffffffffffffffffffffff168152602001600073ffffffffffffffffffffffffffffffffffffffff1673ffffffffffffffffffffffffffffffffffffffff168152602001600073ffffffffffffffffffffffffffffffffffffffff1673ffffffffffffffffffffffffffffffffffffffff168152602001600073ffffffffffffffffffffffffffffffffffffffff1673ffffffffffffffffffffffffffffffffffffffff16815250600090600a61021c92919061022f565b5034801561022957600080fd5b506102ef565b82600a810192821561029b579160200282015b8281111561029a5782518260006101000a81548173ffffffffffffffffffffffffffffffffffffffff021916908373ffffffffffffffffffffffffffffffffffffffff16021790555091602001919060010190610242565b5b5090506102a891906102ac565b5090565b6102ec91905b808211156102e857600081816101000a81549073ffffffffffffffffffffffffffffffffffffffff0219169055506001016102b2565b5090565b90565b6103e0806102fe6000396000f3fe608060405234801561001057600080fd5b50600436106100415760003560e01c806313beb2af1461004657806343bef5a31461008c57806381697cbf146100d2575b600080fd5b61004e61012e565b6040518082600a60200280838360005b8381101561007957808201518184015260208101905061005e565b5050505090500191505060405180910390f35b6100b8600480360360208110156100a257600080fd5b81019080803590602001909291905050506101af565b604051808215151515815260200191505060405180910390f35b610114600480360360208110156100e857600080fd5b81019080803573ffffffffffffffffffffffffffffffffffffffff16906020019092919050505061027d565b604051808215151515815260200191505060405180910390f35b610136610388565b6000600a806020026040519081016040528092919082600a80156101a5576020028201915b8160009054906101000a900473ffffffffffffffffffffffffffffffffffffffff1673ffffffffffffffffffffffffffffffffffffffff168152602001906001019080831161015b575b5050505050905090565b6000600a82101561027357600073ffffffffffffffffffffffffffffffffffffffff16600083600a81106101df57fe5b0160009054906101000a900473ffffffffffffffffffffffffffffffffffffffff1673ffffffffffffffffffffffffffffffffffffffff16146102725760008083600a811061022a57fe5b0160006101000a81548173ffffffffffffffffffffffffffffffffffffffff021916908373ffffffffffffffffffffffffffffffffffffffff16021790555060019050610278565b5b600090505b919050565b6000806102886102f5565b9050600a8110156102ea5782600082600a81106102a157fe5b0160006101000a81548173ffffffffffffffffffffffffffffffffffffffff021916908373ffffffffffffffffffffffffffffffffffffffff16021790555060019150506102f0565b60009150505b919050565b600080600090505b600a81101561037f57600073ffffffffffffffffffffffffffffffffffffffff16600082600a811061032b57fe5b0160009054906101000a900473ffffffffffffffffffffffffffffffffffffffff1673ffffffffffffffffffffffffffffffffffffffff1614156103725780915050610385565b80806001019150506102fd565b50600b90505b90565b604051806101400160405280600a9060208202803883398082019150509050509056fea265627a7a72315820cee2bd4a8c1080689a03231086e466df03101ae2e104d775c9df20c34eb1d65664736f6c63430005100032",
  "source": "// SPDX-License-Identifier: GPL-3.0\n\n/**\n * @title UXLAB\n * @dev Store & retrieve value in a variable\n */\n\ncontract UXLAB {\n    address[10] pcs = [address(0) ,address(0) ,address(0) ,address(0) ,address(0) ,address(0) ,address(0) ,address(0) ,address(0) ,address(0)  ];\n\n    function getFirstAvailablePC() private returns (uint) {\n        for (uint i = 0; i < pcs.length; i++) {\n            if (pcs[i] == address(0)) {\n                return i;\n            }\n        }\n        return 11;\n    }\n\n    function reservePC(address pc) public returns (bool) {\n        uint index = getFirstAvailablePC();\n        if (index < pcs.length) {\n            pcs[index] = pc;\n            return true;\n        }\n        return false;\n    }\n\n    function releasePC(uint pcIndex) public returns (bool) {\n        if (pcIndex < pcs.length) {\n            if (pcs[pcIndex] != address(0)) {\n                pcs[pcIndex] = address(0);\n                return true;\n            }\n        }\n        return false;\n    }\n\n    function getPCs() public view returns (address[10] memory) {\n        return pcs;\n    }\n}",
  "sourcePath": "/Users/marcofuentes/Documents/UVG/9no/Blockchain/MetaCoin/contracts/2_UXLAB.sol",
  "compiler": {
    "name": "solc",
    "version": "0.5.16+commit.9c3226ce.Emscripten.clang"
  },
  "schemaVersion": "3.4.7",
  "updatedAt": "2022-05-08T18:58:35.008Z",
  "networkType": "ethereum",
  "devdoc": {
    "details": "Store & retrieve value in a variable",
    "methods": {},
    "title": "UXLAB"
  },
  "userdoc": {
    "methods": {}
  }
}